:020000040800F2
:10000000E006002091010008371300080B120008D9
:10001000351300088305000897140008000000004D
:100020000000000000000000000000003B1300087A
:100030008505000800000000391300083D13000882
:10004000AB010008AB010008AB010008AB010008E0
:10005000AB010008AB010008AB010008AB010008D0
:10006000AB010008AB010008AB010008AB010008C0
:10007000AB010008AB010008AB010008AB010008B0
:10008000AB010008AB010008AB010008AB010008A0
:10009000AB010008AB010008AB01000887050008B0
:1000A0009D130008A9130008AB010008AB0100086C
:1000B000AB010008AB010008AB010008AB01000870
:1000C000AB010008AB010008AB010008AB01000860
:1000D000AB010008AB010008AB010008AB01000850
:1000E000AB010008AB010008AB01000800F002F80A
:1000F00000F03FF80AA090E8000C82448344AAF183
:100100000107DA4501D100F034F8AFF2090EBAE880
:100110000F0013F0010F18BFFB1A43F0010318473B
:10012000301A0000501A0000103A24BF78C878C175
:10013000FAD8520724BF30C830C144BF04680C60ED
:10014000704700000023002400250026103A28BF35
:1001500078C1FBD8520728BF30C148BF0B60704739
:10016000642900F07180002070471FB51FBD10B5D5
:1001700010BD00F0CCF91146FFF7F7FF01F012FABD
:1001800000F0EAF903B4FFF7F2FF03BC00F0F2F964
:100190000948804709480047FEE7FEE7FEE7FEE71B
:1001A000FEE7FEE7FEE7FEE7FEE7FEE70448054957
:1001B000054A064B7047000099130008ED0000083F
:1001C000E0000020E0060020E0020020E002002025
:1001D0000FB41CB5074B06AA7B44694600900598EE
:1001E00000F07DF90020694600F08CF91CBC5DF838
:1001F00014FB00002903000070B5044685690068FF
:10020000C10601D5302600E02026C00707D070BD0A
:10021000D4E9012130469047206A401C20626D1EBF
:10022000F6D570BD70B5044685690078C00707D162
:1002300070BDD4E9012120209047206A401C206233
:100240006D1EF6D570BD00002DE9F0410646002474
:1002500010687529314616A510D0AFF3008000282C
:1002600002DA404213A507E031688A0701D512A5DA
:1002700002E0490704D511A5012401E0AFF3008095
:1002800000210A2206F1240709E0B0FBF2FCB0FBD2
:10029000F2F302FB1C00303078541846491C002849
:1002A000F3D123462A463046BDE8F04100F0B9B804
:1002B000000000002D0000002B00000020000000C6
:1002C0002DE9F0474FF0000A89460446C0F820A007
:1002D0002046E1688847002876D0252806D0D4E952
:1002E00001219047206A401C2062F1E7E168204626
:1002F00000258847C4F81CA006460027C4F818A0AB
:100300002A2E09D0304601F0D7F838B304EB87081D
:10031000303EC8F8186019E059F8041B204604EB79
:1003200087029161E1688847012F064618D1E0698C
:10033000002820DA25F020051DE0D8F8180000EB91
:10034000800006EB40003038C8F818002046E1680D
:100350008847064601F0B0F80028EED1012F0AD0F8
:100360002E2E08D12046E16888477F1C0646022FC2
:1003700045F02005C4DBA069002803DA404245F0BF
:100380000105A061E80701D025F01005B6B1A6F17E
:100390004100192802D8203645F400654A46314606
:1003A000204625604D46FFF7DBFE58B1012806D0F8
:1003B000ED1D25F0070000F1080989E704E005F1CB
:1003C000040985E730468AE7206ABDE8F0874FF0E8
:1003D000000200B5134694469646203922BFA0E895
:1003E0000C50A0E80C50B1F12001BFF4F7AF0907A1
:1003F00028BFA0E80C5048BF0CC05DF804EB890092
:1004000028BF40F8042B08BF704748BF20F8022BD4
:1004100011F0804F18BF00F8012B704770477047EC
:1004200070472DE9F0470D4699469246044600F183
:1004300024080168880604D5E06921F010012160D4
:1004400000E00120A84201DD471B00E00027A16970
:100450007A1902EB0900081AA0612078C00602D4BC
:100460002046FFF7C9FE002608E0D4E901211AF86A
:1004700006009047206A401C761C20624E45F4DB43
:100480002078C0060AD52046FFF7B6FE06E0D4E97C
:10049000012130209047206A401C2062381EA7F1BD
:1004A0000107F4DC07E0D4E9012118F805009047C2
:1004B000206A401C2062281EA5F10105F3DC2046BD
:1004C000FFF7B0FE2078000602D50220BDE8F087D5
:1004D0000120FBE701694A1C02610878704700B5FA
:1004E0008FB0CDE901310021059105497944CDE96D
:1004F000031011466846FFF7E3FE0FB000BD000091
:10050000E5FFFFFF0A6802F8010B0A6070477546B5
:1005100000F02CF8AE4605006946534620F007006F
:10052000854618B020B5FFF741FEBDE820404FF0EA
:1005300000064FF000074FF000084FF0000B21F0CD
:100540000701AC46ACE8C009ACE8C009ACE8C0099A
:10055000ACE8C0098D46704710B50446AFF3008083
:100560002046BDE81040FFF70DBE00000048704770
:100570007C00002001491820ABBEFEE726000200E7
:100580007047FEE7704710B5402000F033F8BDE833
:100590001040802000F02EB870B5044600F02CF911
:1005A0000546601C02D004480078044400F024F999
:1005B000401BA042FAD370BD2400002010B5402893
:1005C0000ED080280BD1094800F0CAFC0848002151
:1005D000017041708170C0E902110121C17010BD2C
:1005E000BDE81040014800F08FBC0000340000203E
:1005F00000000020044910B50A68024202D00860D9
:10060000FFF7DCFF10BD0000140401402DE9F84F96
:10061000DFF8B8910024A9F1040B23460F2709F154
:10062000040AABF1040EC9E00125A5402A40AA4204
:100630007DD1674ED1F804C0ACEB0608B44532D08A
:1006400014DCBCF1030F3AD009DCBCF1000F2AD056
:10065000BCF1010F1CD0BCF1020F31D11DE0BCF187
:10066000110F17D0BCF1120F2AD119E0B8F5881F6D
:1006700019D006DCB8F5803F15D0B8F5801F1FD122
:1006800011E0B8F5001F0ED0B8F5041F18D10AE02C
:10069000CB6815E0CB681B1D12E0CB6808330FE078
:1006A000CB680C330CE08B682BB1012B4FF00803A7
:1006B00003D0456104E0042302E0056100E000236B
:1006C000FF2A01D8064601E000F104064FEA84053E
:1006D00001D9A5F12005D6F8008007FA05FC28EA23
:1006E0000C0803FA05F548EA0508C6F800804D68CD
:1006F000ED0062D5374DAE6946F00106AE61AD69D9
:1007000024F0030605F001050095334D06EB050CBA
:10071000DCF80850A607360F07FA06F825EA0805A0
:10072000DFF8B880404503D14FF0000817E044E0FF
:10073000DFF8AC80404502D14FF001080FE0DFF850
:10074000A480404502D14FF0020808E0DFF898800D
:10075000404502D14FF0030801E04FF0040808FAC9
:1007600006F848EA0508CCF808804D68D9F800601A
:10077000ED024D4601D5164300E096432E604D68CC
:10078000DAF80060AD02554601D5164300E0964305
:100790002E604D68DBF80060AD035D4601D5164361
:1007A00000E096432E604D68DEF80060ED0375466C
:1007B00001D5164300E096432E60641C0D682A465E
:1007C000E5407FF431AFBDE8F88F00000804014038
:1007D000000011100010024000000140000801401C
:1007E000000C014000100140001401400AB10161F9
:1007F00070470904FBE7000001488068704700006B
:10080000240000200248816802781144816070470A
:1008100024000020074810B5016841F01001016074
:10082000032000F075F80F2000F006F800F024F81F
:10083000002010BD0020024070B50D4D04464FF45D
:100840007A712878B1FBF0F00A490968B1FBF0F041
:1008500000F0BCFA48B9102C07D200222146501EE5
:1008600000F036F800206C6070BD012070BD000003
:1008700024000020300000200C4808B5816941F0B8
:1008800001018161816901F001010091C16941F0BB
:100890008051C161C06900F08050009004484168F7
:1008A00021F0E06141F00071416008BD001002409C
:1008B00000000140002809DB00F01F0201219140E7
:1008C0004009800000F1E020C0F8001170470000EE
:1008D000F0B40E4B1B680C46C3F30223C3F10705AB
:1008E000042D00D90425191D072901D2002300E099
:1008F000DB1E012606FA05F1491E214099409E4063
:10090000761E16403143F0BC00F0C6BD0CED00E091
:10091000064900F0070208684FF6FF03184040EA56
:100920000220034A10430860704700000CED00E00D
:100930000000FA052DE9F0470F46050061D0434E4F
:10094000306800F00700B84209D2306820F0070094
:1009500038433060306800F00700B84251D1286851
:100960003B4C810712D5400703D5606840F4E06036
:1009700060602878000703D5606840F460506060CC
:100980006068A96820F0F000084360602878C0071C
:1009900028D06868012810D02168022810D0890763
:1009A00000292EDA616821F0030101436160FFF73D
:1009B00023FF804641F288390DE021688903EFE783
:1009C0008901EDE7FFF718FFA0EB0801494502D9BF
:1009D0000320BDE8F0876068696800F00C00B0EBA8
:1009E000810FEFD1306800F00700B8420BD93068B2
:1009F00020F0070038433060306800F00700B8424C
:100A000001D00120E5E72878400705D56068E9684E
:100A100020F4E060084360602878000706D560682D
:100A2000296920F4605040EAC100606000F018F8C5
:100A30006168084AC1F30311515CC8400649086067
:100A400006480068FFF7F8FE0020C2E700200240D9
:100A5000001002403E1B000830000020280000204B
:100A60000E4A51680E4801F00C03042B11D0082BDC
:100A70000FD10C48C1F38343C903C05C0AD5516848
:100A8000084AC1F34041921E515C054A5043B0FBF5
:100A9000F1F07047044948437047000000100240DD
:100AA00000127A002E1B000800093D002DE9F84FC6
:100AB000040070D02078C04DC00749D06868C0F3EA
:100AC0008100012807D06868C0F38100022809D19D
:100AD0006868C00306D52868800339D56068002897
:100AE000E7D035E06068B0F5803F0BD010B1B0F5CD
:100AF000A02F11D0286820F480302860286820F4C6
:100B0000802002E0286840F480302860606890B15E
:100B1000FFF772FE06460AE0286840F4802028604D
:100B2000F0E700BFFFF768FE801B642873D82868D1
:100B30008003F7D50CE0FFF75FFE064605E000BF37
:100B4000FFF75AFE801B6428F0D828688003F7D48A
:100B500020789A4E80074FF001094FF0000839D5F0
:100B6000686810F00C0F07D06868C0F38100022895
:100B700009D16868C00306D42868800714D52069A5
:100B8000012808D110E02069B0B1C6F80090FFF745
:100B900033FE074605E00AE1FFF72EFEC01B0228E0
:100BA000C4D828688007F7D52868616920F0F80064
:100BB00040EAC10028600DE0C6F80080FFF71CFE87
:100BC000074604E0FFF718FEC01B022823D8286858
:100BD0008007F7D4207800072CD57948A169D9B1CE
:100BE000C0F80090FFF708FE074604E0FFF704FE98
:100BF000C01B02280FD8686A8007F7D571484FF4E8
:100C0000FA510068B0FBF1F0009000BF0098411E5F
:100C10000091FAD20EE080E0C0F80080FFF7ECFD12
:100C2000074604E0FFF7E8FDC01B022875D8686A94
:100C30008007F7D42078400760D5E8690027C00016
:100C400008D4E86940F08050E861E869012700F0C5
:100C5000805000905C480168C90513D40168834640
:100C600041F480710160FFF7C7FD824606E000BFD6
:100C7000FFF7C2FDA0EB0A0064284ED8DBF80000A5
:100C8000C005F5D5E06801280AD008B1052813D0C1
:100C9000286A20F001002862286A20F0040002E09F
:100CA000286A40F001002862E06841F2883B98B170
:100CB000FFF7A2FD82460BE0286A40F0040028629C
:100CC000EEE700BFFFF798FDA0EB0A0159455AD89F
:100CD000286A8007F6D50CE0FFF78EFD824605E016
:100CE000FFF78AFDA0EB0A0159454CD8286A800716
:100CF000F6D41FB1E86920F08050E861E06988B35C
:100D00006968C1F38101022944D00228C6F86080D5
:100D100004D0FFF771FD044638E034E0FFF76CFDC6
:100D2000074604E0FFF768FDC01B02282BD828689F
:100D30008001F7D4206AB0F5803F05D16868A168CA
:100D400020F4003008436860D4E90801084369686A
:100D500021F4741108436860C6F86090FFF74CFDF9
:100D6000044606E025E000BFFFF746FD001B022811
:100D700009D828688001F7D51BE000BFFFF73CFDCC
:100D8000001B022802D90320BDE8F88F28688001E3
:100D9000F4D40EE00128F7D06868226A00F48031AC
:100DA000914204D1616A00F47010884201D00120A0
:100DB000EAE70020E8E7000000100240000042429D
:100DC00080044242300000200070004010B5401EF8
:100DD000B0F1807F01D3012010BD4FF0E0246061AD
:100DE0000F21601700F058FB0020A0610720206150
:100DF000002010BD7047704770B590F83C20012A64
:100E000026D0012480F83C40022280F83D2003686F
:100E10005A689D6822F070060A6832435A600D4B8A
:100E200002689A4208D0B2F1804F05D00A4B9A422C
:100E300002D00A4B9A4204D1496825F08003194335
:100E4000916080F83D40002180F83C10084670BD5C
:100E5000022070BD002C014000040040000800404A
:100E600010B5040003D094F83D0010B107E0012054
:100E700010BD002084F83C00204600F01FF802203E
:100E800084F83D00211D206800F094FA012084F8C8
:100E9000460084F83E0084F83F0084F8400084F85F
:100EA000410084F8420084F8430084F8440084F848
:100EB000450084F83D00002010BD000008B5006822
:100EC0000F4988421AD10F48816941F4006181615C
:100ED0008069002200F40060009011461820FFF79E
:100EE000F7FC1820FFF7E6FC002211461920FFF757
:100EF000EFFCBDE808401920FFF7DCBC08BD00008E
:100F0000002C01400010024090F83D10012901D052
:100F100001207047022180F83D100168CA6842F044
:100F20000102CA6000680B49884208D0B0F1804FC6
:100F300005D00949884202D00849884204D1816815
:100F400001F00701062903D0016841F001010160A9
:100F500000207047002C01400004004000080040C1
:100F600001680A6A41F211131A4207D10A6A9B10FA
:100F70001A4203D10A6822F001020A60012180F8B6
:100F80003D100020704770B5044690F83C000025E5
:100F9000012817D0012684F83C60022084F83D0027
:100FA0002068826822F0770222F47F42826008681B
:100FB000502838D00DDC20284FD005DC90B3102805
:100FC00011D14AE0022070BD302846D040280AD115
:100FD0003BE060282FD070280DD0B0F5805F03D0A3
:100FE000B0F5005F12D0012584F83D60002084F840
:100FF0003C00284670BDCB68D1E90121206800F093
:1010000015FA2068816841F0770109E0CB68D1E9E1
:101010000121206800F00AFA2068816841F48041CB
:101020008160E1E719E0CA684968206800F010FAB9
:101030005021206806E0CA684968206800F019FA63
:101040006021206800F0FCF9CEE7CA684968206892
:1010500000F0FEF940212068F4E7226801461046BE
:10106000F0E770472DE9F04104460068C66805695D
:101070004FF00007A90713D5B10711D5F91E01617B
:1010800001202077206880698007204602D0FFF782
:10109000E8FF04E000F07EF8204600F07CF82777B7
:1010A000680716D5700714D521686FF00400086131
:1010B000022020772068806910F4407F204602D00B
:1010C000FFF7CFFF04E000F065F8204600F063F87A
:1010D0002777280715D5300713D521686FF008004A
:1010E0000861042020772068C0698007204602D06C
:1010F000FFF7B7FF04E000F04DF8204600F04BF892
:101100002777E80616D5F00614D521686FF0100091
:101110000861082020772068C06910F4407F2046CD
:1011200002D0FFF79EFF04E000F034F8204600F004
:1011300032F82777E80708D0F00706D021686FF06B
:1011400001000861204600F027F8280608D530067F
:1011500006D521686FF0800008612046FFF74AFE3F
:10116000680608D5700606D521686FF04000086152
:10117000204600F049F8A8060AD5B00608D521682F
:101180006FF0200008612046BDE8F041FFF733BE54
:10119000BDE8F0817047704710B500681649174CDC
:1011A000884225D1D4E902010022154B00F05AFAF9
:1011B0000022144BC4E9020100F098FB18D2002071
:1011C000C4E902002078401CC0B220703B280FD92F
:1011D000002020706178491CC9B261703B2907D991
:1011E0006070A178491CC9B2A170182900D9A070FB
:1011F0000120E07010BD0000002C01400000002024
:101200000000F03F000022407047FEE72DE9F04368
:1012100085B00024294800940194029403948169C4
:1012200041F020018161816901F02001049181690F
:1012300041F004018161816901F004010491816937
:1012400041F0080181618069DFF8748000F00800D6
:1012500004900022FF214046FFF7C8FADFF86490AF
:1012600040F60447002239464846FFF7BFFAFF2000
:101270000126CDE90006022569464046CDE9024532
:10128000FFF7C4F9CDE9007669464846CDE9024545
:10129000FFF7BCF9C02000900B48CDE90105694675
:1012A0004846FFF7B3F9002211461720FFF710FB5D
:1012B0001720FFF7FFFA05B0BDE8F08300100240E9
:1012C00000080140000C01400000111010B586B06C
:1012D0000024174800940194029403940494134941
:1012E0000594016041F63F71C0E901146321C0E932
:1012F000031444618461FFF7B3FD08B172B6FEE7E1
:101300004FF48050009069460948FFF73CFE08B151
:1013100072B6FEE7049404A905480594FFF76CFD36
:10132000002801D072B6FEE706B010BD002C0140C7
:1013300034000020FEE7FEE770477047FFF762BA0F
:1013400030B58FB028216846FFF741F814210AA86C
:10135000FFF73DF80121080400240491CDE90010B5
:10136000CDE908040294022507956846FFF79EFB25
:1013700008B172B6FEE70F20CDE90A058020CDE95D
:101380000C0400210AA80E94FFF7D4FA002801D01B
:1013900072B6FEE70FB030BD704700000148FFF79E
:1013A00061BE0000340000200148FFF75BBE000072
:1013B00034000020F0B50268194B1A4C1A4D4FF05A
:1013C0008047984205D0B84203D0A04201D0A8423D
:1013D00003D122F070064A683243984205D0B842E1
:1013E00003D0A04201D0A84203D122F44074CA68BD
:1013F00022434C6922F08002224302608A68C26262
:101400000A688262984201D1096901630121416140
:101410000169C90703D0016921F001010161F0BD33
:10142000002C0140000400400008004010B5846812
:1014300042EA032224F47F440A432243826010BD1F
:10144000826822F070020A4342F00701816070470F
:1014500010B5036A046A24F001040462846924F06C
:10146000F00444EA021423F00A020A43846102628F
:1014700010BD10B5036A046A24F010040462846984
:1014800023F0A00324F4704444EA023243EA011139
:101490008261016210BDFEE70907090E002804DB26
:1014A00000F1E02080F80014704700F00F0000F118
:1014B000E02080F8141D704730380A2801D201203E
:1014C00070470020704710B50120FFF765F8012034
:1014D00000F09AF8BDE81040022000F095B870B511
:1014E00004460D460120FFF757F85DB1012D0BD0E2
:1014F000022D0BD0032D0BD1D434E0B2BDE87040E7
:1015000000F082B88034F8E7C034F6E79434F4E7AA
:1015100070BD10B50220FFF73FF8382000F074F8D6
:10152000062000F071F8BDE810400C2000F06CB807
:1015300070B504460120FFF72FF8114D01229102EA
:101540002846FFF753F9002204212846FFF74EF9F9
:101550000C4E0022FF213046FFF748F901222146B8
:101560003046FFF743F90122D40221462846FFF70F
:101570003DF921462846BDE870400022FFF736B904
:10158000000C01400008014010B504460120FFF79F
:1015900003F802E0FFF7CCFF641C20780028F9D1A3
:1015A00010BD000008B5FFF735F9FFF7C9FEFFF7DA
:1015B0002DFEFFF78BFEFFF7ACFF0E48FFF7A4FCF4
:1015C0000D4C0025E0780028FCD0E570FFF77BFF8C
:1015D00000210846FFF783FF2078009006486378D3
:1015E000A27806A11030FEF7F3FD03481030FFF794
:1015F000CBFFE7E734000020000000202532643AEA
:101600002532643A2532640070B504460220FEF7A4
:10161000C3FF124D00224FF480612846FFF7E6F821
:10162000002204212846FFF7E1F80D4E0022FF2199
:101630003046FFF7DBF8012221463046FFF7D6F8A7
:101640000122D40221462846FFF7D0F82146284639
:10165000BDE870400022FFF7C9B80000000C01404F
:101660000008014010B591EA030F48BF83F0004322
:1016700000F17A81841A71EB030C05D2121943EB45
:101680000C03001B61EB0C01DFF824E14FEA11545D
:10169000A4EB135C1EEA430F18BF9EEA445F73D0AD
:1016A00023EA0E03DCF1200E21EA045143F48013F7
:1016B00032D322FA0CFE10EB0E0023FA0CFE41EBA3
:1016C0000E01CCF1200E03FA0EFE10EB0E0051F1CC
:1016D0000001B1F5801FCCF1200E32D201EB045194
:1016E00012FA0EF2BDE8104058BF7047401C38BFD8
:1016F0005FEA420218BF7047002814BF20F00100C3
:1017000041F100014FEA410313F5001F38BF704754
:10171000A1F1C04100F0E4B8012A43EB0302ACF1AF
:10172000200CDCF11F0E32BF4FF0000E23FA0CF339
:1017300010EB030041EB0451B4EB115FD0D0A1EBEF
:10174000045101F5801149085FEA300001EB0451B2
:101750000ED350F1000038BF12FA0EFE08D1BDE8DA
:101760001040C9E7401C38BF5FEA4202CAD1C3E754
:10177000BDE810404FEA410313F5001F38BF704722
:10178000A1F1C04100F0ACB89EEA445F08D011EA74
:101790005E0FBDE8104004BF01F00041002070471B
:1017A000BDE8104070B500F04DF800BF64FBBE3ED0
:1017B0000000E0FF491058BFC1F140415B1058BF25
:1017C000C3F140438B42EFF30080704751EA030CB2
:1017D00017D41CF5801F58BFBCF5801F00F1068090
:1017E000994218BF704708BF9042704707D711F55C
:1017F000801F58BF13F5801F19D499427047894242
:1018000070471CF5801F08D5BCF5801FF7D58B42AB
:1018100018BF704708BF824270474FF4001C1CEB92
:10182000410F38BF1CEB430F01D28B42704770B59C
:1018300000F008F8922449004FF000514FF0805317
:10184000FFF7B8BF0EF1020E2EF0030E5EF8046B28
:10185000364205D4012A43EB030515F5001F12D8C3
:10186000012841EB010C1CF5001F0CD80ED14FEAEA
:10187000D17C15F5001F0CEB4C0C0CF1020C08BFD1
:101880004CEBD37C04E04FF0080C01E04FEAD37C32
:101890000CEB4C0526FA05F606F00706B6F1040C2B
:1018A00006D20EEB860CBDE870404CF0010C604790
:1018B000DFE80CF0090B02024FF000414FF000008E
:1018C000A1F5002170BD19461046012851EB010415
:1018D00018BFD4F5001484BF002001F0004170BD92
:1018E0000808A0F500114FEA3101704753EA010CD6
:1018F00017D41CF5801F58BFBCF5801F00F106806F
:101900008B4218BF704708BF8242704707D713F554
:10191000801F58BF11F5801F19D48B4270479B421E
:1019200070471CF5801F08D5BCF5801FF7D599427C
:1019300018BF704708BF904270474FF4001C1CEB63
:10194000430F38BF1CEB410F01D2994270470FB4CF
:101950000CBC03BCFFF76BBF10B591EA030F48BF87
:1019600083F000433FF586AE841A71EB030C07D277
:1019700012198CF0004C43EB0C03001B61EB0C01C3
:10198000DFF8A4E14FEA1154A4EB135C1EEA430F05
:1019900018BF9EEA445F00F0B08023EA6E03524213
:1019A00021EA0451C3EB6E0338BF5B1EDCF1200E4D
:1019B00025D322FA0CFE10EB0E0043FA0CFE41EB8D
:1019C0000E01CCF1200E03FA0EFE10EB0E0051F1C9
:1019D0000001CCF1200E29D412FA0EF201EB0451D1
:1019E000BDE8104058BF7047401C1CBFB2F1004F0B
:1019F000704700280CBF491C20F00100704712EB13
:101A0000020E43EB030218BF4FF0010E4EEA4202F2
:101A1000ACF1200CDCF11E0E54D943FA0CFE10EB95
:101A20000E0051F1FF31CCF11E0ED5D50EF1010E95
:101A300012FA0EFE404141EB010101EB445C5FEA0A
:101A40005C5C10D910EBDE7001EB045138BFBEF1C5
:101A5000004FBDE8104018BF704700280CBF491C5C
:101A600020F00100704730D24FEAD42C11F500115C
:101A700024F400641BD0B1FA81F20B3AA41AA41E1C
:101A8000D2F12003914030FA03F31943904001EB67
:101A9000CC71002C01EB0451BDE81040A8BF704789
:101AA00001F1C0414FF0000001F000417047B0FA71
:101AB00080F310FA03F100D110BDE41A173C480579
:101AC000C90AE4E701EB045110BD491001EB0451D0
:101AD000BDE810404FEA300002E04FF000017047CF
:101AE0004A0008BF0042F8D0B2F5001F28BF704777
:101AF00001F000414FF0000070479EEA445F07D0BC
:101B000011EA5E0FBDE8104004BF002100207047BD
:101B1000BDE8104070B5FFF795FE00BF40DFF63E10
:101B200083F00041104670470000E0FF010202030D
:101B30000405060708090A0B0C0D0E0F1010000013
:101B4000000000000000010203040607080900006D
:101B5000701B00080000002034000000280100086D
:101B6000A41B000834000020AC060000440100085B
:101B70000000000000000000000000000000000065
:101B80003000000000000000000000000000000025
:101B90000000000001000000100000000000000034
:041BA00000127A00B5
:04000005080000ED02
:00000001FF
